:03000000020308F0
:0C030800787FE4F6D8FD7581400200FC0F
:1000FC0012029F7B007A007921753E057D8E1200DD
:10010C00A8753D00753E00753F217540057B007A52
:10011C000079261200037B007A007926E4FDFF1299
:10012C000262E4FF74212FF8E6042FF60FBF05F4EA
:10013C007B007A007921753E057D8E12014C80FE84
:060003008B3A8A3B893CA8
:10000900AF401540EF70030200A7AB3DAA3EA93FE0
:10001900120237C4540FFFD394095012EF2430FE53
:10002900AB3A053CE53CAA3B7014053B8010EF2434
:1000390037FEAB3A053CE53CAA3B7002053B14F997
:10004900EE120250AB3DAA3EA93F120237540FFFF0
:10005900D394095012EF2430FFAB3A053CE53CAA92
:100069003B7014053B8010EF2437FFAB3A053CE5A4
:100079003CAA3B7002053B14F9EF120250AB3A055A
:100089003CE53CAA3B7002053B14F974201202506E
:0E0099007401253FF53FE4353EF53E020009B7
:0100A7002236
:1002B3007580FFC290D291D295AF80C295EF20E7AF
:0102C300F644
:0102C4002217
:1002E800AE071202B3C290C2918E80D295C29522F7
:1002F800AE071202B3D290C2918E80D295C29522D7
:1002C500ED7004AC078004EF2440FCEC4480FF0291
:0202D50002E83D
:100262008B3A8A3B893C1202C5AB3AAA3BA93C12A3
:1002720002376013053CE53C7002053B14F912029B
:0802820037FF1202F880E222AE
:10029F007F381202E87F0C1202E87F061202E87F15
:0402AF00010202E85E
:1002D700D2B6D2B700000000C2B600000000C2B715
:0102E70022F4
:10028A00C2B7C2B600000000D2B700000000D2B662
:05029A0000000000223D
:10019B007E80EE601B5F7004C2B68002D2B6000098
:1001AB000000D2B700000000C2B7EEC313FE80E21E
:1001BB00D2B600000000D2B7A2B692000000000039
:0501CB00C2B7A200B361
:0101D000220C
:1001D100D2B67E80EE601D00000000D2B720B605C9
:1001E100F452078003EE420700000000C2B7EEC3DD
:1001F10013FE80E0D2B600000000D2B7000000007C
:02020100C2B782
:0102030022D8
:10020400D2B67E80EE601D00000000D2B720B60595
:10021400F452078003EE420700000000C2B7EEC3A9
:1002240013FE80E0C2B600000000D2B70000000058
:02023400C2B74F
:0102360022A5
:1000A8008B3A8A3B893C8D3D1202D77FA012019B77
:1000B800400512028A80F1AF3D12019B1202D77FE0
:1000C800A112019BE53ED394014019120204AB3AF8
:1000D800053CE53CAA3B7002053B14F9EF120250BF
:1000E800153E80E01201D1AB3AAA3BA93CEF1202BF
:0400F8005002028A26
:10014C008B3A8A3B893C8D3DE53ED39400403F126F
:10015C0002D77FA012019B400512028A80F1AF3DAD
:10016C0012019BE53ED39400401FAB3A053CE53CA5
:10017C00AA3B7002053B14F9120237FF12019B15C2
:0F018C003E053DE53D540770DA12028A80BA2223
:10023700BB010689828A83E0225002E722BBFE02C5
:09024700E32289828A83E49322F8
:10025000BB010689828A83F0225002F722BBFE018D
:02026000F32287
:00000001FF
