:030000000201E317
:0C01E300787FE4F6D8FD75811802011247
:10016C0057656C636F6D6520746F204B535435313C
:0F017C00004B696E6773742053747564696F006C
:1001120078087C007D007BFF7A01797D7E007F0E6E
:100122001200D312018B7B007A007908E4FD7F0272
:100132001201447BFF7A01796C7D01E4FF120144D4
:0201420080FE3D
:10019F007580FFC290D291D295AF80C295EF20E7C4
:0101AF00F659
:0101B000222C
:1001C300AE0712019FC290C2918E80D295C2952232
:1001D300AE0712019FD290C2918E80D295C2952212
:1001B100ED7004AC078004EF2440FCEC4480FF02A6
:0201C10001C378
:100144008B168A1789181201B1AB16AA17A91812AF
:1001540000F960130518E5187002051714F9120068
:08016400F9FF1201D380E22231
:10018B007F381201C37F0C1201C37F061201C37F9C
:04019B00010201C399
:10000300E709F608DFFA8046E709F208DFFA803EDF
:1000130088828C83E709F0A3DFFA8032E309F608CC
:10002300DFFA8078E309F208DFFA807088828C8334
:10003300E309F0A3DFFA806489828A83E0A3F608E8
:10004300DFFA805889828A83E0A3F208DFFA804CC2
:1000530080D280FA80C680D4806980F28033801099
:1000630080A680EA809A80A880DA80E280CA803302
:1000730089828A83ECFAE493A3C8C582C8CCC5837A
:10008300CCF0A3C8C582C8CCC583CCDFE9DEE7804A
:100093000D89828A83E493A3F608DFF9ECFAA9F0C9
:1000A300EDFB2289828A83ECFAE0A3C8C582C8CC1F
:1000B300C583CCF0A3C8C582C8CCC583CCDFEADE38
:1000C300E880DB89828A83E493A3F208DFF980CC9A
:1000D30088F0EF60010E4E60C388F0ED2402B40493
:1000E3000050B9F582EB2402B4040050AF2323453A
:0600F3008223900053730C
:1000F900BB010689828A83E0225002E722BBFE0205
:09010900E32289828A83E4932237
:00000001FF
