:030000000203BF39
:0C03BF00787FE4F6D8FD75815702040633
:1005DB00C0F9A4B0999282F880908883C6A1868EC8
:1005EB00313233263435362537383928301B0D2731
:10051F000633FFFFFFFFFFFF10390101010101014A
:10052F00010101010101010101010108000409009C
:10053F00000000040D000000001011010101010175
:10054F00010101010101010101010101210010223D
:10055F00FFFFFFFFFFFFFFFFFFFFFFFFFFFFFFFF9C
:03056F0001320056
:1005FB00D2AFC294D293758901758CFC758A67D280
:0F060B00A9D28C9005DBE493F53312044B80FBEE
:08031A008F4F8E4E8D4D8C4C6F
:10032200EC33501075510112005D8F4F8E4E8D4D82
:100332008C4C8003E4F551E4F550E47B0AFAF9F8B9
:10034200AF4FAE4EAD4DAC4C120573AF0374522598
:1003520050F8A607AF4FAE4EAD4DAC4CE47B0AFA57
:10036200F9F81205738F4F8E4E8D4D8C4C0550E56A
:1003720050B406C675500574522550F8E6700A74DA
:10038200332550F876FFD550EEE5516010C3E550A5
:1003920064809485500774342550F876BFC3E550C5
:1003A20064809480401674522550F8E69005DB93E1
:0C03B200FF74332550F8A607155080E1B9
:0103BE00221C
:020139008F4BEA
:10013B00E54BC394304046E54BD39439503FE47FB5
:10014B000AFEFDFCAB10AA0FA90EA80D12000EA8FB
:10015B0004A905AA06AB07E54B24D0FFE434FFFE48
:10016B00E4FCFDEB2FF510EA3EF50FED39F50EEC47
:10017B0038F50DAF10AE0FAD0EFC020243E54BB4DC
:10018B002622E4F50885100C850F0B850E0A850DCC
:10019B0009F510F50FF50EF50DAF10AE0FAD0EAC5A
:1001AB000D020243E54BB4282275080185100C851E
:1001BB000F0B850E0A850D09E4F510F50FF50EF5FD
:1001CB000DAF10AE0FAD0EAC0D806DE54BB40D4AFF
:1001DB00E508701AE50C2510F50CE50B350FF50B42
:1001EB00E50A350EF50AE509350DF5098019C3E564
:1001FB000C9510F50CE50B950FF50BE50A950EF527
:10020B000AE509950DF509E4F510F50FF50EF50D59
:10021B00AF0CAE0BAD0AAC09801EE54BB41B1CE456
:10022B00F510F50FF50EF50DF50CF50BF50AF509B7
:0B023B00AF10AE0FAD0EAC0D12031A99
:010246002295
:10044B00E4F549E4F54AE54925E025E02439254A58
:10045B00F8E6FFE54925E025E02411254AF8E6FEFC
:10046B006F603DEE6020E54925E025E024EBF58249
:10047B00E43405F583E582254AF582E43583F5837B
:10048B00E493FF120139E54925E025E02439254A9B
:10049B00F8E6FFE54925E025E02411254AF8A607F3
:1004AB00054AE54AC39404409D0549E549C39404B4
:0204BB0040916E
:0104BD00221C
:10024700E52125E025E02422F8E625E0FFA2A4E445
:10025700334FFFE52125E025E02422F8A607E52115
:1002670025E025E02423F8E625E0FFA2A5E4334FA7
:10027700FFE52125E025E02423F8A607E52125E071
:1002870025E02424F8E625E0FFA2A6E4334FFFE5A6
:100297002125E025E02424F8A607E52125E025E02F
:1002A7002425F8E625E0FFA2A7E4334FFFE5212543
:1002B700E025E02425F8A607E4FFE52125E025E071
:1002C70024222FF8E6540FFE700EE52125E025E0E5
:1002D70024392FF8E4F6800FBE0F0CE52125E02521
:1002E700E024392FF876010FBF04CF0521532103EE
:1002F700E52114600F14601114601324037013D2E6
:10030700A0C2A322D2A3C2A222D2A2C2A122D2A158
:02031700C2A082
:0103190022C1
:1004BE007580FFE53214601C14602514602E1460E4
:1004CE003714604024057048C292C291C290053222
:1004DE0085338022C292C291D29005328534802219
:1004EE00C292D291C290053285358022C292D291AB
:1004FE00D290053285368022D292C291C2900532B8
:10050E0085378022D292C291D290E4F5328538801E
:01051E0022BA
:03000B000205B734
:1005B700C0E0C0D075D000C000C006C007758CFC75
:1005C700758A671204BE120247D007D006D000D042
:0405D700D0D0E0326E
:1003CB000205FBE493A3F8E493A34003F68001F248
:1003DB0008DFF48029E493A3F85407240CC8C33333
:1003EB00C4540F4420C8834004F456800146F6DF02
:1003FB00E4800B010204081020408090051FE47E6E
:10040B00019360BCA3FF543F30E509541FFEE493F6
:10041B00A360010ECF54C025E060A840B8E493A3BD
:10042B00FAE493A3F8E493A3C8C582C8CAC583CAE8
:10043B00F0A3C8C582C8CAC583CADFE9DEE780BEA0
:010572000088
:10000E00E88FF0A4CC8BF0A42CFCE98EF0A42CFC91
:10001E008AF0EDA42CFCEA8EF0A4CDA8F08BF0A40F
:10002E002DCC3825F0FDE98FF0A42CCD35F0FCEB6E
:10003E008EF0A4FEA9F0EB8FF0A4CFC5F02ECD3933
:0F004E00FEE43CFCEAA42DCE35F0FDE43CFC22A0
:10057300C2D5E830E70FB2D5E4C39BFBE49AFAE4B3
:1005830099F9E498F8EC30E717B2D51205A91200EF
:10059300A7E4C39BFBE49AFAE499F9E498F880038F
:1005A3001200A730D50DE4C39FFFE49EFEE49DFD3A
:0405B300E49CFC22A6
:0E005D00C3E49FFFE49EFEE49DFDE49CFC22B4
:10006B0075F008758200EF2FFFEE33FECD33CDCC4C
:10007B0033CCC58233C5829BED9AEC99E5829840CF
:10008B000CF582EE9BFEED9AFDEC99FC0FD5F0D6AC
:10009B00E4CEFBE4CDFAE4CCF9A88222B800C1B9D6
:1000AB000059BA002DEC8BF084CFCECDFCE5F0CB14
:1000BB00F97818EF2FFFEE33FEED33FDEC33FCEB4D
:1000CB0033FB10D703994004EB99FB0FD8E5E4F908
:1000DB00FA227818EF2FFFEE33FEED33FDEC33FCF5
:1000EB00C933C910D7059BE99A4007EC9BFCE99AE9
:1000FB00F90FD8E0E4C9FAE4CCFB2275F010EF2F2E
:10010B00FFEE33FEED33FDCC33CCC833C810D7072D
:10011B009BEC9AE899400AED9BFDEC9AFCE899F868
:0E012B000FD5F0DAE4CDFBE4CCFAE4C8F922FB
:00000001FF
