:03000000020358A0
:0C035800787FE4F6D8FD75813502039F24
:1004D000456E7465722050617373776F7264005358
:1004E00065742050617373776F7264005061737329
:1004F000776F726420436F727265637400737973EF
:1005000074656D20756E6C6F636B005061737377EB
:100510006F72642057726F6E670073797374656DC4
:10052000206C6F636B656400436F6E6669726D204B
:1005300050617373776F7264004661696C65640023
:0606B700013200013300D6
:10063500D2AF7F017E001203E412098712076B7B9C
:10064500FF500F7A0479D0E4FDFF120902E4F53476
:10065500800D7A0479DFE4FDFF1209027534011279
:1006650008D57A00790D1208D9E4F53512045D80B4
:01067500FB89
:0906F700751F0D7BFE7A00791AD3
:100700008B198A1A891BAF1F151FEF6026AB1C05BA
:100710001EE51EAA1D7002051D14F912000EFFAB86
:1007200019051BE51BAA1A7002051A14F9EF12002D
:040730002780D32229
:0B08D5007A0079007BFE751E0DE4FD2B
:1008E0008B1A8A1B891CAF1E151EEF6014AB1A05EC
:1008F0001CE51CAA1B7002051B14F9ED12002780D1
:02090000E522EE
:100734008B0B8A0C890DAF111511EF6028AB0E05D8
:1007440010E510AA0F7002050F14F912000EFFAB8A
:100754000B050DE50DAA0C7002050C14F912000E20
:070764006F60D3C322D32212
:06092A008B198A1A891BDB
:10093000E4FFAE051DEE6015AB19051BE51BAA1AF9
:0D0940007002051A14F912000E2FFF80E559
:01094D002287
:10076B007B007A007908751A0E7D301205407B00EC
:10077B007A0079087D0D12092AEFF4B5150E751C58
:10078B0000751D00751E081206F7D3227BFE7A003A
:06079B00791A1208DBC30D
:0107A1002235
:10087500751CFE751D00751E1A751F0D7B007A000F
:10088500790B1207007B007A00790B7D0D12092A7E
:10089500EFF4F5187B007A00790B751D0E7D30029B
:0208A50005E666
:1008A7007B007A00790C85351E7D2A1208E0740CCE
:1008B7002535F9E4FAFBC3740E9535F51EE4FD12F0
:0E08C70008E07B007A00790C0DE4FF020902C4
:1007A2008F0BE53414601014601824027028E535AC
:1007B200C3940D50218007E535C3940D5018740081
:1007C2008009E535C3940D500D740D2535F8E50B00
:0707D200F205351208A72211
:10016900E5341460711470030201F514700302027E
:100179004714700302024714700302026C240560DD
:1001890003020283120003750EFE750F007510003D
:1001990075110D7BFE7A00791A1207347BFF501B0B
:1001A9007A0479ECE4FDFF1209027BFF7A0479FDF8
:1001B9007D01E4FF120902753404227A05790BE402
:1001C900FDFF1209027BFF7A05791A7D01E4FF120E
:1001D9000902753405221200037BFF7A057928E4A8
:1001E900FDFF120902E4F535753402221200037588
:1001F9000EFE750F0075100D75110D7BFE7A0079D5
:10020900001207347BFF501B7A0479D0E4FDFF12FA
:100219000902751CFE751D00751E001206F71208ED
:1002290075804F7A057928E4FDFF1209027BFF7A70
:100239000579397D01E4FF120902753403221200A0
:10024900037BFF7A0479DFE4FDFF1209021208D566
:100259007BFE7A00790D751E0D1208E0E4F53575FF
:100269003401221200037BFF7A0479D0E4FDFF12E6
:0B02790009021208D5E4F535F5342227
:10059400E534146012146025240270451200037BB4
:1005A400FF7A0479D080091200037BFF7A0479DF93
:1005B400E4FDFF1209021208D5E4F5352212000306
:1005C4007BFF7A0479DFE4FDFF1209021208D57B70
:1005D400FE7A00790D751E0D1208E0E4F5357534C8
:0205E4000122F2
:10094E008F0AE50AC39430400AE50AD3943950035E
:10095E000207A2E50AB40D03020169E50AB41B03FE
:04096E0012059422B8
:1003E400750B00750A1075090E750800E4FCFDAB69
:1003F4000BAA0AA909A808120039E47BE87A03F9D0
:10040400F81200C48F0B8E0A8D098C08C3E4950B77
:10041400F50BE4950AF50A74019509F509E49508C4
:10042400F508E50B241CF50BE4350AF50AE4350957
:10043400F509E43508F508AF0BAE0AAD09FC7808F8
:100444001201568F32850B335389F043890185326B
:080454008C85338AD2A9D28CF9
:01045C00227D
:03000B0002067674
:10067600C0E0C0F0C083C082C0D075D000C000C04A
:1006860001C002C003C004C005C006C00785328C85
:1006960085338A120284D007D006D005D004D00351
:1006A600D002D001D000D0D0D082D083D0F0D0E01C
:0106B6003211
:10099B007580FFC290D291D295AF80C295EF20E7C0
:0109AB00F655
:0109AC002228
:1009D000AE0712099BC290C2918E80D295C2952219
:1009E000AE0712099BD290C2918E80D295C29522F9
:1009AD00ED7004AC078004EF2440FCEC4480FF02A2
:0209BD0009D05F
:100902008B1A8A1B891C1209ADAB1AAA1BA91C12CD
:10091200000E6013051CE51C7002051B14F9120081
:080922000EFF1209E080E22241
:050003007F010209D09D
:100987007F381209D07F0C1209D07F061209D07F59
:04099700010209D080
:1009BF00D2B6D2B700000000C2B600000000C2B726
:0109CF002205
:10097200C2B7C2B600000000D2B700000000D2B673
:0509820000000000224E
:1007D9007E80EE601B5F7004C2B68002D2B6000054
:1007E9000000D2B700000000C2B7EEC313FE80E2DA
:1007F900D2B600000000D2B7A2B6920000000000F5
:05080900C2B7A200B31C
:01080E0022C7
:10080F00D2B67E80EE601D00000000D2B720B60584
:10081F00F452078003EE420700000000C2B7EEC398
:10082F0013FE80E0D2B600000000D2B70000000037
:02083F00C2B73E
:010841002294
:10084200D2B67E80EE601D00000000D2B720B60551
:10085200F452078003EE420700000000C2B7EEC365
:1008620013FE80E0C2B600000000D2B70000000014
:02087200C2B70B
:010874002261
:100540008B168A1789188D191209BF7FA01207D937
:10055000400512097280F1AF191207D91209BF7F45
:10056000A11207D9E51AD394014019120842AB161B
:100570000518E518AA177002051714F9EF120027DD
:10058000151A80E012080FAB16AA17A918EF12006F
:0405900027020972C3
:1005E6008B198A1A891B8D1CE51DD39400403F1276
:1005F60009BF7FA01207D9400512097280F1AF1C0E
:100606001207D9E51DD39400401FAB19051BE51B46
:10061600AA1A7002051A14F912000EFF1207D9154C
:0F0626001D051CE51C540770DA12097280BA22F8
:1009F000313233263435362537383928301B0D2728
:1006BD009037010101010101010101010101010158
:1006CD000101902701010101010101010101010158
:1006DD00010101010121001022FFFFFFFFFFFFFFBC
:0906ED00FFFFFFFFFFFFFFFFFF0D
:10045D00E4F508E4F509E50825E025E0243725094C
:10046D00F8E2FFE50825E025E024272509F8E2FE5E
:10047D006F603DEE6020E50825E025E024F0F58273
:10048D00E43409F583E5822509F582E43583F583A6
:10049D00E493FF12094EE50825E025E024372509F0
:1004AD00F8E2FFE50825E025E024272509F8EFF21D
:1004BD000509E509C39404409D0508E508C39404A6
:0204CD0040915C
:0104CF00220A
:10028400E52125E025E02422F8E625E0FFA2A4E408
:10029400334FFFE52125E025E02422F8A607E521D8
:1002A40025E025E02423F8E625E0FFA2A5E4334F6A
:1002B400FFE52125E025E02423F8A607E52125E034
:1002C40025E02424F8E625E0FFA2A6E4334FFFE569
:1002D4002125E025E02424F8A607E52125E025E0F2
:1002E4002425F8E625E0FFA2A7E4334FFFE5212506
:1002F400E025E02425F8A607E4FFE52125E025E034
:1003040024222FF8E6540FFE700EE52125E025E0A7
:1003140024372FF8E4F28010BE0F0DE52125E025E7
:10032400E024372FF87401F20FBF04CE05215321C6
:1003340003E52114600F1460111460132403701377
:10034400D2A0C2A322D2A3C2A222D2A2C2A122D2EA
:03035400A1C2A0A3
:010357002283
:10036400020635E493A3F8E493A34003F68001F274
:1003740008DFF48029E493A3F85407240CC8C3339A
:10038400C4540F4420C8834004F456800146F6DF69
:10039400E4800B01020408102040809006B7E47E3C
:1003A400019360BCA3FF543F30E509541FFEE4935E
:1003B400A360010ECF54C025E060A840B8E493A325
:1003C400FAE493A3F8E493A3C8C582C8CAC583CA50
:1003D400F0A3C8C582C8CAC583CADFE9DEE780BE08
:0106F6000003
:10000E00BB010689828A83E0225002E722BBFE02F0
:09001E00E32289828A83E4932223
:10002700BB010689828A83F0225002F722BBFE01B8
:02003700F322B2
:10003900E88FF0A4CC8BF0A42CFCE98EF0A42CFC66
:100049008AF0EDA42CFCEA8EF0A4CDA8F08BF0A4E4
:100059002DCC3825F0FDE98FF0A42CCD35F0FCEB43
:100069008EF0A4FEA9F0EB8FF0A4CFC5F02ECD3908
:0F007900FEE43CFCEAA42DCE35F0FDE43CFC2275
:1000880075F008758200EF2FFFEE33FECD33CDCC2F
:1000980033CCC58233C5829BED9AEC99E5829840B2
:1000A8000CF582EE9BFEED9AFDEC99FC0FD5F0D68F
:1000B800E4CEFBE4CDFAE4CCF9A88222B800C1B9B9
:1000C8000059BA002DEC8BF084CFCECDFCE5F0CBF7
:1000D800F97818EF2FFFEE33FEED33FDEC33FCEB30
:1000E80033FB10D703994004EB99FB0FD8E5E4F9EB
:1000F800FA227818EF2FFFEE33FEED33FDEC33FCD8
:10010800C933C910D7059BE99A4007EC9BFCE99ACB
:10011800F90FD8E0E4C9FAE4CCFB2275F010EF2F10
:10012800FFEE33FEED33FDCC33CCC833C810D70710
:100138009BEC9AE899400AED9BFDEC9AFCE899F84B
:0E0148000FD5F0DAE4CDFBE4CCFAE4C8F922DE
:10015600E8600FECC313FCED13FDEE13FEEF13FF87
:03016600D8F122AB
:00000001FF
