:0300000002026792
:0C026700787FE4F6D8FD7581130202AE2A
:10033700C0F9A4B0999282F880908883C6A1868E6E
:080347000608C0F9A4B0999268
:10000300E4F50EF50FF510F511F512F513C294D2C0
:1000130093758901758C25758A32D28C308DFDC21A
:100023008D758C25758A32050FE50F7002050EC399
:100033009403E50E9400400DE4F50EF50F0511E56C
:100043001170020510E51345127015C292C291C2D8
:10005300900513E51370020512AE10AF110200ED07
:10006300E51364014512701BC292C291D29005132D
:10007300E51370020512AE10AF117C007D0A120168
:10008300448067E51364024512701BC292D291C289
:10009300900513E51370020512AE10AF117C007DBD
:1000A300641201448044E51364034512701BC29239
:1000B300D291D2900513E51370020512AE10AF1161
:1000C3007C037DE81201448021E51364044512702A
:1000D30031D292C291C2900513E51370020512AE9C
:1000E30010AF117C277D101201447C007D0A1201A0
:1000F3004474372DF58274033CF583E493F5800251
:10010300001FE51364054512600302001FD292C26B
:1001130091D290F512F513AE10AF11FCFD7BA07ACE
:10012300867901F81202F3E47B0AFAF9F81202F372
:1001330074372BF58274033AF583E493F580020058
:010143001F9C
:10027300020003E493A3F8E493A34003F68001F29E
:1002830008DFF48029E493A3F85407240CC8C3338C
:10029300C4540F4420C8834004F456800146F6DF5B
:1002A300E4800B0102040810204080900347E47EA1
:1002B300019360BCA3FF543F30E509541FFEE49350
:1002C300A360010ECF54C025E060A840B8E493A317
:1002D300FAE493A3F8E493A3C8C582C8CAC583CA42
:1002E300F0A3C8C582C8CAC583CADFE9DEE780BEFA
:01034F0000AD
:10014400BC000BBE0029EF8DF084FFADF022E4CC9F
:10015400F875F008EF2FFFEE33FEEC33FCEE9DEC68
:10016400984005FCEE9DFE0FD5F0E9E4CEFD22EDAE
:10017400F8F5F0EE8420D21CFEADF075F008EF2FF8
:10018400FFED33FD4007985006D5F0F222C398FDE9
:050194000FD5F0EA2286
:1002F300C2D5E830E70FB2D5E4C39BFBE49AFAE436
:1003030099F9E498F8EC30E717B2D51203291201F2
:10031300D5E4C39BFBE49AFAE499F9E498F88003E3
:100323001201D530D50DE4C39FFFE49EFEE49DFD8D
:04033300E49CFC2228
:1001990075F008758200EF2FFFEE33FECD33CDCC1D
:1001A90033CCC58233C5829BED9AEC99E5829840A0
:1001B9000CF582EE9BFEED9AFDEC99FC0FD5F0D67D
:1001C900E4CEFBE4CDFAE4CCF9A88222B800C1B9A7
:1001D9000059BA002DEC8BF084CFCECDFCE5F0CBE5
:1001E900F97818EF2FFFEE33FEED33FDEC33FCEB1E
:1001F90033FB10D703994004EB99FB0FD8E5E4F9D9
:10020900FA227818EF2FFFEE33FEED33FDEC33FCC5
:10021900C933C910D7059BE99A4007EC9BFCE99AB9
:10022900F90FD8E0E4C9FAE4CCFB2275F010EF2FFE
:10023900FFEE33FEED33FDCC33CCC833C810D707FE
:100249009BEC9AE899400AED9BFDEC9AFCE899F839
:0E0259000FD5F0DAE4CDFBE4CCFAE4C8F922CC
:00000001FF
