:03000000020026D5
:0C002600787FE4F6D8FD75814002006D83
:1000B2000F2168656C6C6F2066726F6D2035310A96
:1000C200000E3368656C6C6F2066726F6D20504352
:0900D20000013000013100C18081
:1000F200D2AF1200DC30000BE53260F9120003C20D
:030102000080F288
:0101050022D7
:10000300E4FFC2ACC29974212FF8E6F5993099FD4B
:08001300C299D2AC0FBF0EEA46
:01001B0022C2
:1000DC0075985053890F438920758DFD758BFDC222
:0600EC00ABD28ED2AC2263
:03002300020106D1
:09010600309805C2988599323247
:100032000200F2E493A3F8E493A34003F68001F2F2
:1000420008DFF48029E493A3F85407240CC8C333CF
:10005200C4540F4420C8834004F456800146F6DF9E
:10006200E4800B01020408102040809000B2E47E7C
:10007200019360BCA3FF543F30E509541FFEE49393
:10008200A360010ECF54C025E060A840B8E493A35A
:10009200FAE493A3F8E493A3C8C582C8CAC583CA85
:1000A200F0A3C8C582C8CAC583CADFE9DEE780BE3D
:0100DB000024
:00000001FF
