:030000000202CE2B
:0C02CE00787FE4F6D8FD75815502031519
:10050300C0F9A4B0999282F880908883C6A1868EA0
:10051300313233263435362537383928301B0D2709
:10048E000632FFFFFFFFFFFF1038010101010101DE
:10049E000101010101010101010104080000000038
:1004AE00040C000000001010010101010101010106
:1004BE0001010101010101010120001021FFFFFFD7
:1004CE00FFFFFFFFFFFFFFFFFFFFFFFFFF013100F9
:10052300D2AFC294D293758901758CFC758A67D258
:0F053300A9D28C900503E493F53212043580FBB6
:08035A008F4E8E4D8D4C8C4B33
:10036200E4F54FE47B0AFAF9F8AF4EAE4DAD4CAC72
:100372004B120099AF037450254FF8A607AF4EAE4B
:100382004DAD4CAC4BE47B0AFAF9F81200998F4E52
:100392008E4D8D4C8C4B054FE54FB406C6754F05FF
:1003A2007450254FF8E6700A7432254FF876FFD55F
:1003B2004FEEC3E54F6480948040167450254FF889
:1003C200E690050393FF7432254FF8A607154F8078
:0103D200E149
:0103D3002207
:0201FE008F4A26
:10020000E54AC394304045E54AD39439503EE47FF3
:100210000AFEFDFCAB0FAA0EA90DA80C12000EA839
:1002200004A905AA06AB07E54A24D0FFE434FFFE83
:10023000E4FCFDEB2FF50FEA3EF50EED39F50DEC84
:1002400038F50CAF0FAE0EAD0DFC807EE54AB4263E
:100250002BE50B250FF50BE50A350EF50AE50935FB
:100260000DF509E508350CF508E4F50FF50EF50D6B
:10027000F50CAF0BAE0AAD09AC08804EE54AB40DE3
:100280002BE50B250FF50BE50A350EF50AE50935CB
:100290000DF509E508350CF508E4F50FF50EF50D3B
:1002A000F50CAF0BAE0AAD09AC08801EE54AB41BD5
:1002B0001CE4F50FF50EF50DF50CF50BF50AF50937
:0D02C000F508AF0FAE0EAD0DAC0C12035AD9
:0102CD00220E
:10043500E4F548E4F549E54825E025E02438254973
:10044500F8E6FFE54825E025E024102549F8E6FE15
:100455006F6023EE6020E54825E025E02413F58252
:10046500E43405F583E5822549F582E43583F58392
:10047500E493FF1201FE0549E549C3940440B7051D
:0804850048E548C3940440ABB4
:01048D00224C
:10012B00E52025E025E02421F8E625E0FFA2A4E464
:10013B00334FFFE52025E025E02421F8A607E52035
:10014B0025E025E02422F8E625E0FFA2A5E4334FC5
:10015B00FFE52025E025E02422F8A607E52025E091
:10016B0025E02423F8E625E0FFA2A6E4334FFFE5C4
:10017B002025E025E02423F8A607E52025E025E04F
:10018B002424F8E625E0FFA2A7E4334FFFE5202562
:10019B00E025E02424F8A607E4FFE52025E025E090
:1001AB0024212FF8E6540FFE700EE52025E025E004
:1001BB0024382FF8E4F6800FBE0F0CE52025E02540
:1001CB00E024382FF876010FBF04CF05205320030E
:1001DB00E52014600F14601114601324037013D204
:1001EB00A0C2A322D2A3C2A222D2A2C2A122D2A176
:0201FB00C2A0A0
:0101FD0022DF
:1003D4007580FFE53114601C14602514602E1460D0
:1003E4003714604024057048C292C291C29005310E
:1003F40085328022C292C291D29005318533802207
:10040400C292D291C290053185348022C292D29197
:10041400D290053185358022D292C291C2900531A5
:1004240085368022D292C291D290E4F5318537800C
:0104340022A5
:03000B000204DF0D
:1004DF00C0E0C0D075D000C000C006C007758CFC4E
:1004EF00758A671203D412012BD007D006D000D023
:0404FF00D0D0E03247
:1002DA00020523E493A3F8E493A34003F68001F212
:1002EA0008DFF48029E493A3F85407240CC8C33325
:1002FA00C4540F4420C8834004F456800146F6DFF4
:10030A00E4800B010204081020408090048EE47EF1
:10031A00019360BCA3FF543F30E509541FFEE493E8
:10032A00A360010ECF54C025E060A840B8E493A3AF
:10033A00FAE493A3F8E493A3C8C582C8CAC583CADA
:10034A00F0A3C8C582C8CAC583CADFE9DEE780BE92
:0104DE00001D
:10000E00E88FF0A4CC8BF0A42CFCE98EF0A42CFC91
:10001E008AF0EDA42CFCEA8EF0A4CDA8F08BF0A40F
:10002E002DCC3825F0FDE98FF0A42CCD35F0FCEB6E
:10003E008EF0A4FEA9F0EB8FF0A4CFC5F02ECD3933
:0F004E00FEE43CFCEAA42DCE35F0FDE43CFC22A0
:10005D0075F008758200EF2FFFEE33FECD33CDCC5A
:10006D0033CCC58233C5829BED9AEC99E5829840DD
:10007D000CF582EE9BFEED9AFDEC99FC0FD5F0D6BA
:10008D00E4CEFBE4CDFAE4CCF9A88222B800C1B9E4
:10009D000059BA002DEC8BF084CFCECDFCE5F0CB22
:1000AD00F97818EF2FFFEE33FEED33FDEC33FCEB5B
:1000BD0033FB10D703994004EB99FB0FD8E5E4F916
:1000CD00FA227818EF2FFFEE33FEED33FDEC33FC03
:1000DD00C933C910D7059BE99A4007EC9BFCE99AF7
:1000ED00F90FD8E0E4C9FAE4CCFB2275F010EF2F3C
:1000FD00FFEE33FEED33FDCC33CCC833C810D7073C
:10010D009BEC9AE899400AED9BFDEC9AFCE899F876
:0E011D000FD5F0DAE4CDFBE4CCFAE4C8F92209
:00000001FF
