:03000000020157A3
:0C015700787FE4F6D8FD75812002019E3F
:10032D004B696E6773742053747564696F004C6507
:0C033D00742773206D6F76652E2E2E0045
:0B03A100C100011000011100010F005D
:1001E300E4F508D2AF7F0AFE12026F120349E4FF5F
:1001F30074002FF87420F2742E2FF87420F20FBFBE
:1002030010EEE4FFEF90032D93FE74102FF8EEF23F
:10021300EF90033B93FE743E2FF8EEF20FBF0DE415
:100223007F1D74002FF87420F2742E2FF87420F2BF
:100233000FBF2EEE3000FDC2001508C3E508648031
:100243009480500375081C74002508F9E4FA7BFEBA
:10025300750E10FDFF1202E8742E2508F9E4FA7BEF
:0C026300FE750E107D01FF1202E880C83D
:10026F00750C00750B10750A0E750900E4FCFDABDB
:10027F000CAA0BA90AA809120027E47BE87A03F954
:10028F00F81200B28F0C8E0B8D0A8C09C3E4950CFB
:10029F00F50CE4950BF50B7401950AF50AE4950935
:1002AF00F509E50C240CF50CE4350BF50BE4350AD8
:1002BF00F50AE43509F509AF0CAE0BAD0AFC780869
:1002CF001201448F10850C115389F0438901851059
:0802DF008C85118AD2A9D28C92
:0102E70022F4
:03000B00020310DD
:04031000C0E0C0D0B9
:1003140085108C85118A050FE50FC394324005754D
:040324000F00D200F4
:05032800D0D0D0E0324E
:10035D007580FFC290D291D295AF80C295EF20E704
:01036D00F699
:01036E00226C
:10038100AE0712035DC290C2918E80D295C29522B2
:10039100AE0712035DD290C2918E80D295C2952292
:10036F00ED7004AC078004EF2440FCEC4480FF02E6
:02037F000381F8
:1002E8008B0B8A0C890D12036FAF0E150EEF60177A
:1002F800AB0B050DE50DAA0C7002050C14F91200E4
:080308000EFF12039180E222B6
:100349007F381203817F0C1203817F061203817F9C
:040359000102038119
:100163000201E3E493A3F8E493A34003F68001F2CE
:1001730008DFF48029E493A3F85407240CC8C3339D
:10018300C4540F4420C8834004F456800146F6DF6C
:10019300E4800B01020408102040809003A1E47E58
:1001A300019360BCA3FF543F30E509541FFEE49361
:1001B300A360010ECF54C025E060A840B8E493A328
:1001C300FAE493A3F8E493A3C8C582C8CAC583CA53
:1001D300F0A3C8C582C8CAC583CADFE9DEE780BE0B
:0103AC000050
:10000E00BB010689828A83E0225002E722BBFE02F0
:09001E00E32289828A83E4932223
:10002700E88FF0A4CC8BF0A42CFCE98EF0A42CFC78
:100037008AF0EDA42CFCEA8EF0A4CDA8F08BF0A4F6
:100047002DCC3825F0FDE98FF0A42CCD35F0FCEB55
:100057008EF0A4FEA9F0EB8FF0A4CFC5F02ECD391A
:0F006700FEE43CFCEAA42DCE35F0FDE43CFC2287
:1000760075F008758200EF2FFFEE33FECD33CDCC41
:1000860033CCC58233C5829BED9AEC99E5829840C4
:100096000CF582EE9BFEED9AFDEC99FC0FD5F0D6A1
:1000A600E4CEFBE4CDFAE4CCF9A88222B800C1B9CB
:1000B6000059BA002DEC8BF084CFCECDFCE5F0CB09
:1000C600F97818EF2FFFEE33FEED33FDEC33FCEB42
:1000D60033FB10D703994004EB99FB0FD8E5E4F9FD
:1000E600FA227818EF2FFFEE33FEED33FDEC33FCEA
:1000F600C933C910D7059BE99A4007EC9BFCE99ADE
:10010600F90FD8E0E4C9FAE4CCFB2275F010EF2F22
:10011600FFEE33FEED33FDCC33CCC833C810D70722
:100126009BEC9AE899400AED9BFDEC9AFCE899F85D
:0E0136000FD5F0DAE4CDFBE4CCFAE4C8F922F0
:10014400E8600FECC313FCED13FDEE13FEEF13FF99
:03015400D8F122BD
:00000001FF
