:03000000020219E0
:0C021900787FE4F6D8FD75811B020260BE
:10032100C0F9A4B0999282F880908883C6A1868E84
:0F0003000613FFFFFFFFFFFF011B0002190000A4
:10001E00750C40750B42750A0F750900D2AFC2946C
:10002E00D293758910758DFC758B67D2ABD28EC34A
:10003E00E51A94E8E519940340F5E4F519F51AE587
:10004E000C24FFF50CE50B34FFF50BE50A34FFF538
:10005E000AE50934FFF509E47B0AFAF9F8AF0CAEAC
:10006E000BAD0AAC09120187AF038F0DE47B0AFAC0
:10007E00F9F8AF0CAE0BAD0AAC09120187E47B0A9E
:10008E00FAF9F8120187AF038F0EE47B64FAF9F8E0
:10009E00AF0CAE0BAD0AAC09120187E47B0AFAF97C
:1000AE00F8120187AF038F0FE47BE87A03F9F8AFFC
:1000BE000CAE0BAD0AAC09120187E47B0AFAF9F813
:1000CE00120187AF038F10E47B107A27F9F8AF0C7B
:1000DE00AE0BAD0AAC09120187E47B0AFAF9F812ED
:1000EE000187AF038F117BA07A8679017800AF0C60
:1000FE00AE0BAD0AAC09120187E47B0AFAF9F812CD
:10010E000187AF038F12750805740D2508F8E67088
:10011E000A74132508F876FFD508EEC3E508648047
:10012E009480500302003D740D2508F8E6900321DB
:0D013E0093FF74132508F8A607150880DE4E
:03001B000202A539
:1002A500C0E0C0D0758DFC758B67051AE51A700224
:1002B50005197580FFE51B14601D14602714603156
:1002C50014603B1460452405704DC292C291C290E2
:1002D500051B8513808040C292C291D290051B8573
:1002E50014808033C292D291C290051B85158080FF
:1002F50026C292D291D290051B8516808019D29282
:10030500C291C290051B851780800CD292C291D2F2
:0C03150090751B00851880D0D0D0E0321D
:1002250002001EE493A3F8E493A34003F68001F2D1
:1002350008DFF48029E493A3F85407240CC8C333DA
:10024500C4540F4420C8834004F456800146F6DFA9
:10025500E4800B0102040810204080900003E47E36
:10026500019360BCA3FF543F30E509541FFEE4939E
:10027500A360010ECF54C025E060A840B8E493A365
:10028500FAE493A3F8E493A3C8C582C8CAC583CA90
:10029500F0A3C8C582C8CAC583CADFE9DEE780BE48
:0100120000ED
:10014B0075F008758200EF2FFFEE33FECD33CDCC6B
:10015B0033CCC58233C5829BED9AEC99E5829840EE
:10016B000CF582EE9BFEED9AFDEC99FC0FD5F0D6CB
:10017B00E4CEFBE4CDFAE4CCF9A88222B800C1B9F5
:10018B000059BA002DEC8BF084CFCECDFCE5F0CB33
:10019B00F97818EF2FFFEE33FEED33FDEC33FCEB6C
:1001AB0033FB10D703994004EB99FB0FD8E5E4F927
:1001BB00FA227818EF2FFFEE33FEED33FDEC33FC14
:1001CB00C933C910D7059BE99A4007EC9BFCE99A08
:1001DB00F90FD8E0E4C9FAE4CCFB2275F010EF2F4D
:1001EB00FFEE33FEED33FDCC33CCC833C810D7074D
:1001FB009BEC9AE899400AED9BFDEC9AFCE899F888
:0E020B000FD5F0DAE4CDFBE4CCFAE4C8F9221A
:00000001FF
