:0300000002024AAF
:0C024A00787FE4F6D8FD75813A0202913D
:0C046A007765656B00003012081002136B
:0B047600C100010900010A000108009C
:100157007522AAD2AF7F017E001202D612034F1278
:1001670003EE3000FDC200E4F521AF21120439741B
:10017700232521F8A6070521E521C3940740EBE5D0
:1001870022652360DD752B32752C30E529C4540FA9
:100197002430F52DE529540F2430F52E752F2DE544
:1001A70027C4540F2430F530E527540F2430F53198
:1001B70075322DE526C4540F2430F533E526540F48
:1001C7002430F534E4F535FB7A00792BFDFF120373
:1001D70077E528540F2430F52BE4F52C7BFF7A04C0
:1001E700796AFD7F0B1203777B007A00792BE4FD98
:1001F7007F0F120377E525C4540F2430F52BE5252F
:10020700540F2430F52C752D3AE524C4540F2430AF
:10021700F52EE524540F2430F52F75303AE523C425
:10022700540F2430F531E523540F2430F532E4F52B
:1002370033FB7A00792B7D017F0412037785232214
:0302470002016948
:1003BC007E01EE60135F6004D2B48002C2B4D2B589
:0A03CC00C2B5EE25E0FE80EAD2B4CF
:0103D6002204
:1003D700E4FF7E01EE600F30B4024207D2B5C2B52A
:0603E700EE25E0FE80EEB1
:0103ED0022ED
:10040200D297EF25E04480FF1203BCAF051203BC74
:03041200C297226C
:10043900D297EF25E04481FF1203BC1203D7C2977C
:010449002290
:10034F00C297C2B5E4FF120439AC07EC30E718E4EA
:10035F00FD7F07120402E4FCAF04EC90046F93FDE1
:07036F001204020CBC07F1AF
:010376002264
:1002D600753A0075391075380E753700E4FCFDABBC
:1002E6003AAA39A938A837120027E47BE87A03F935
:1002F600F81200B28F3A8E398D388C37C3E4953AAE
:10030600F53AE49539F53974019538F538E49537B9
:10031600F537E53A240CF53AE43539F539E435385C
:10032600F538E43537F537AF3AAE39AD38FC7808ED
:100336001201448F09853A0A5389F04389018509D8
:080346008C850A8AD2A9D28C31
:01034E00228C
:03000B0002039F4E
:04039F00C0E0C0D02A
:1003A30085098C850A8A0508E508C394C840057544
:0403B3000800D2006C
:0503B700D0D0D0E032BF
:100415007580FFC290D291D295AF80C295EF20E74B
:01042500F6E0
:0104260022B3
:10044A00AE07120415C290C2918E80D295C295222F
:10045A00AE07120415D290C2918E80D295C295220F
:10042700ED7004AC078004EF2440FCEC4480FF022D
:02043700044A75
:100377008B378A388939120427AB37AA38A939123B
:10038700000E60130539E5397002053814F91200BB
:080397000EFF12045A80E2225D
:1003EE007F3812044A7F0C12044A7F0612044A7F99
:0403FE000102044AAA
:10025600020157E493A3F8E493A34003F68001F266
:1002660008DFF48029E493A3F85407240CC8C333A9
:10027600C4540F4420C8834004F456800146F6DF78
:10028600E4800B0102040810204080900476E47E8E
:10029600019360BCA3FF543F30E509541FFEE4936D
:1002A600A360010ECF54C025E060A840B8E493A334
:1002B600FAE493A3F8E493A3C8C582C8CAC583CA5F
:1002C600F0A3C8C582C8CAC583CADFE9DEE780BE17
:01048100007A
:10000E00BB010689828A83E0225002E722BBFE02F0
:09001E00E32289828A83E4932223
:10002700E88FF0A4CC8BF0A42CFCE98EF0A42CFC78
:100037008AF0EDA42CFCEA8EF0A4CDA8F08BF0A4F6
:100047002DCC3825F0FDE98FF0A42CCD35F0FCEB55
:100057008EF0A4FEA9F0EB8FF0A4CFC5F02ECD391A
:0F006700FEE43CFCEAA42DCE35F0FDE43CFC2287
:1000760075F008758200EF2FFFEE33FECD33CDCC41
:1000860033CCC58233C5829BED9AEC99E5829840C4
:100096000CF582EE9BFEED9AFDEC99FC0FD5F0D6A1
:1000A600E4CEFBE4CDFAE4CCF9A88222B800C1B9CB
:1000B6000059BA002DEC8BF084CFCECDFCE5F0CB09
:1000C600F97818EF2FFFEE33FEED33FDEC33FCEB42
:1000D60033FB10D703994004EB99FB0FD8E5E4F9FD
:1000E600FA227818EF2FFFEE33FEED33FDEC33FCEA
:1000F600C933C910D7059BE99A4007EC9BFCE99ADE
:10010600F90FD8E0E4C9FAE4CCFB2275F010EF2F22
:10011600FFEE33FEED33FDCC33CCC833C810D70722
:100126009BEC9AE899400AED9BFDEC9AFCE899F85D
:0E0136000FD5F0DAE4CDFBE4CCFAE4C8F922F0
:10014400E8600FECC313FCED13FDEE13FEEF13FF99
:03015400D8F122BD
:00000001FF
