:03000000020156A4
:0C015600787FE4F6D8FD75811602019D4B
:10033F00C0F9A4B0999282F880908883C6A1868E66
:100329000709FFFFFFFFFFFFFF0110000111000197
:050339001200010800A4
:10029F00D2AFC294D2937F017E001201E27F807EA3
:1002AF00251202C7E512540F90033F93F509E5128B
:0802BF00C4540F93F50A80EC12
:1001E20075160075151075140E751300E4FCFDAB41
:1001F20016AA15A914A813120026E47BE87A03F9BB
:10020200F81200B18F168E158D148C13C3E4951657
:10021200F516E49515F51574019514F514E4951386
:10022200F513E516240DF516E43515F515E4351428
:10023200F514E43513F513AF16AE15AD14FC7808BA
:100242001201438F108516115389F04389018510DD
:080252008C85118AD2A9D28C1F
:01025A002281
:1002C70075985053890F438920AB07AA06E4F9F8BC
:1002D7007F807E70FDFC12025BEFF404F58D858D47
:0802E7008BC2ABD2ACD28E2217
:1002EF007580FFE59054F84508F59074092508F8D6
:1002FF00E6F580E508C394065003050822E4F508E7
:01030F0022CB
:03000B00020310DD
:10031000C0E0C0D075D000C00085108C85118A1255
:0903200002EFD000D0D0D0E03291
:0300230002000ECA
:10000E00309808C298859912851299309902C29932
:01001E0032AF
:1001620002029FE493A3F8E493A34003F68001F212
:1001720008DFF48029E493A3F85407240CC8C3339E
:10018200C4540F4420C8834004F456800146F6DF6D
:10019200E4800B0102040810204080900329E47ED1
:1001A200019360BCA3FF543F30E509541FFEE49362
:1001B200A360010ECF54C025E060A840B8E493A329
:1001C200FAE493A3F8E493A3C8C582C8CAC583CA54
:1001D200F0A3C8C582C8CAC583CADFE9DEE780BE0C
:01033E0000BE
:10002600E88FF0A4CC8BF0A42CFCE98EF0A42CFC79
:100036008AF0EDA42CFCEA8EF0A4CDA8F08BF0A4F7
:100046002DCC3825F0FDE98FF0A42CCD35F0FCEB56
:100056008EF0A4FEA9F0EB8FF0A4CFC5F02ECD391B
:0F006600FEE43CFCEAA42DCE35F0FDE43CFC2288
:1000750075F008758200EF2FFFEE33FECD33CDCC42
:1000850033CCC58233C5829BED9AEC99E5829840C5
:100095000CF582EE9BFEED9AFDEC99FC0FD5F0D6A2
:1000A500E4CEFBE4CDFAE4CCF9A88222B800C1B9CC
:1000B5000059BA002DEC8BF084CFCECDFCE5F0CB0A
:1000C500F97818EF2FFFEE33FEED33FDEC33FCEB43
:1000D50033FB10D703994004EB99FB0FD8E5E4F9FE
:1000E500FA227818EF2FFFEE33FEED33FDEC33FCEB
:1000F500C933C910D7059BE99A4007EC9BFCE99ADF
:10010500F90FD8E0E4C9FAE4CCFB2275F010EF2F23
:10011500FFEE33FEED33FDCC33CCC833C810D70723
:100125009BEC9AE899400AED9BFDEC9AFCE899F85E
:0E0135000FD5F0DAE4CDFBE4CCFAE4C8F922F1
:10025B00C2D5E830E70FB2D5E4C39BFBE49AFAE4CE
:10026B0099F9E498F8EC30E717B2D5120291120025
:10027B00B1E4C39BFBE49AFAE499F9E498F88003A0
:10028B001200B130D50DE4C39FFFE49EFEE49DFD4B
:04029B00E49CFC22C1
:10014300E8600FECC313FCED13FDEE13FEEF13FF9A
:03015300D8F122BE
:00000001FF
