:03000000020159A1
:0C015900787FE4F6D8FD758120020003D9
:100003001200DE7F501200F2920075083575093038
:10001300750A3AA200E4332430F50BE4F50CFB7ABD
:10002300007908FDFF1200887F621200F2920075CA
:100033000836750932750A3AA200E4332430F50B09
:10004300E4F50CFB7A007908FD7F0812008880FE36
:10012800D2B6D2B700000000C2B600000000C2B7C5
:0101380022A4
:1000C900C2B7C2B600000000D2B700000000D2B625
:0500D900000000002200
:100053007E80EE601B5F7004C2B68002D2B60000E1
:100063000000D2B700000000C2B7EEC313FE80E267
:10007300D2B600000000D2B7A2B692020000000080
:04008300C2B7A2025C
:010087002256
:1000F200120128EF25E0FF12005392011200C9A25B
:0101020001FB
:0101030022D9
:100104007580FFC290D291D295AF80C295EF20E75F
:01011400F6F4
:0101150022C7
:10013900AE07120104C290C2918E80D295C2952257
:10014900AE07120104D290C2918E80D295C2952237
:10011600ED7004AC078004EF2440FCEC4480FF0241
:0201260001399D
:100088008B128A138914120116AB12AA13A914121F
:1000980000B060130514E5147002051314F912007A
:0800A800B0FF12014980E222C1
:1000DE007F381201397F0C1201397F061201397FE8
:0400EE0001020139D1
:1000B000BB010689828A83E0225002E722BBFE024E
:0900C000E32289828A83E4932281
:00000001FF
