:030000000201E119
:0C01E100787FE4F6D8FD75812002000351
:100003001201787F0212010F8F08E50875F06484EE
:100013002430F509E50875F00A8475F00A84E5F0E3
:100023002430F50AE50875F00A84E5F02430F50B71
:10003300E4F50CFB7A007909FDFF1200E70508AD32
:08004300087F0212013180FE6A
:02010F008F134C
:100111001201B07FA012004BAF1312004B1201B0BD
:0F0121007FA112004B1200818F14120163AF14E3
:0101300022AC
:100131008F138D141201B07FA012004BAF13120068
:090141004BAF1412004B020163E4
:10018C007580FFC290D291D295AF80C295EF20E7D7
:01019C00F66C
:01019D00223F
:1001C100AE0712018CC290C2918E80D295C2952247
:1001D100AE0712018CD290C2918E80D295C2952227
:10019E00ED7004AC078004EF2440FCEC4480FF02B9
:0201AE0001C18D
:1000E7008B138A14891512019EAB13AA14A9151232
:1000F700014A60130515E5157002051414F912017C
:080107004AFF1201D180E2223F
:100178007F381201C17F0C1201C17F061201C17FB5
:04018800010201C1AE
:1001B000D2B6D2B700000000C2B600000000C2B73D
:0101C000221C
:10016300C2B7C2B600000000D2B700000000D2B68A
:05017300000000002265
:10004B007E80EE601B5F7004C2B68002D2B60000E9
:10005B000000D2B700000000C2B7EEC313FE80E26F
:10006B00D2B600000000D2B7A2B69200000000008A
:05007B00C2B7A200B3B2
:01008000225D
:10008100D2B67E80EE601D00000000D2B720B6051A
:10009100F452078003EE420700000000C2B7EEC32E
:1000A10013FE80E0D2B600000000D2B700000000CD
:0200B100C2B7D4
:0100B300222A
:1000B400D2B67E80EE601D00000000D2B720B605E7
:1000C400F452078003EE420700000000C2B7EEC3FB
:1000D40013FE80E0C2B600000000D2B700000000AA
:0200E400C2B7A1
:0100E60022F7
:10014A00BB010689828A83E0225002E722BBFE02B3
:09015A00E32289828A83E49322E6
:00000001FF
