:0300000002027584
:0C027500787FE4F6D8FD75811E0202BC03
:10037900C0F9A4B0999282F880908883C6A1868E2C
:100359000711FFFFFFFFFFFFFF011800020F000059
:0F036900010800010901040A00000000010E0054
:10030100D2AFC294D293758901758CFC758A67D27C
:10031100A9D28CE518C394C84006E4F51812033637
:10032100C3E51094E8E50F940340E8E4F50FF510F8
:0503310012000E80DE49
:10033600E509F4F517E508700DE50925E0F509B4BA
:10034600801075080122E509C313F509B40103E419
:02035600F508A8
:010358002282
:10000E00E50D2401F50DE4350CF50CE4350BF50B7F
:10001E00E4350AF50AE47B0AFAF9F8AF0DAE0CAD39
:10002E000BAC0A12013BAF038F19E47B0AFAF9F805
:10003E00AF0DAE0CAD0BAC0A12013BE47B0AFAF924
:10004E00F812013BAF038F1AE47B64FAF9F8AF0D97
:10005E00AE0CAD0BAC0A12013BE47B0AFAF9F812B6
:10006E00013BAF038F1BE47BE87A03F9F8AF0DAECB
:10007E000CAD0BAC0A12013BE47B0AFAF9F8120143
:10008E003BAF038F1CE47B107A27F9F8AF0DAE0C53
:10009E00AD0BAC0A12013BE47B0AFAF9F812013BF4
:1000AE00AF038F1D7BA07A8679017800AF0DAE0C61
:1000BE00AD0BAC0A12013BE47B0AFAF9F812013BD4
:1000CE00AF038F1E7F0574192FF8E6700874112F79
:1000DE00F876FFDFF1C3EF64809480401374192F1C
:1000EE00F8E690037993FE74112FF8A6061F80E5AB
:0100FE0022DF
:03000B000201CD22
:0D01CD00C0E0C083C082C0D075D000C0006B
:1001DA00758CFC758A6705180510E5107002050F05
:1001EA007580FFE50EB4070050769001FBF82828C9
:1001FA007302021002021D02022A0202370202449C
:10020A0002025102025EC292C291C290050E85118B
:10021A0080804DC292C291D290050E851280804094
:10022A00C292D291C290050E8513808033C292D2B7
:10023A0091D290050E8514808026D292C291C290E6
:10024A00050E8515808019D292C291D290050E852D
:10025A001680800CD292D291C290750E00851780BA
:0B026A00D000D0D0D082D083D0E03292
:10028100020301E493A3F8E493A34003F68001F28F
:1002910008DFF48029E493A3F85407240CC8C3337E
:1002A100C4540F4420C8834004F456800146F6DF4D
:1002B100E4800B0102040810204080900359E47E81
:1002C100019360BCA3FF543F30E509541FFEE49342
:1002D100A360010ECF54C025E060A840B8E493A309
:1002E100FAE493A3F8E493A3C8C582C8CAC583CA34
:1002F100F0A3C8C582C8CAC583CADFE9DEE780BEEC
:010378000084
:1000FF0075F008758200EF2FFFEE33FECD33CDCCB8
:10010F0033CCC58233C5829BED9AEC99E58298403A
:10011F000CF582EE9BFEED9AFDEC99FC0FD5F0D617
:10012F00E4CEFBE4CDFAE4CCF9A88222B800C1B941
:10013F000059BA002DEC8BF084CFCECDFCE5F0CB7F
:10014F00F97818EF2FFFEE33FEED33FDEC33FCEBB8
:10015F0033FB10D703994004EB99FB0FD8E5E4F973
:10016F00FA227818EF2FFFEE33FEED33FDEC33FC60
:10017F00C933C910D7059BE99A4007EC9BFCE99A54
:10018F00F90FD8E0E4C9FAE4CCFB2275F010EF2F99
:10019F00FFEE33FEED33FDCC33CCC833C810D70799
:1001AF009BEC9AE899400AED9BFDEC9AFCE899F8D4
:0E01BF000FD5F0DAE4CDFBE4CCFAE4C8F92267
:00000001FF
