:03000000020224D5
:0C022400787FE4F6D8FD75812002026BA3
:080003000E0C0D090B030706AA
:0F04CA00040900000000010D00010E00010800F0
:10042000D2AF1204DC7F027E001202B03000FDC2A7
:1004300000E511B4090D7F687E017D007C00120487
:100440005580E9E511B415E47F987EFE7DFF7CFFC1
:0504500012045580D7E5
:100455008F168E158D148C13C2AFE47FEC7E0FFDC5
:10046500FCAB16AA15A914A813120016E47B687A2A
:1004750001F9F812039B8F0C8E0B8D0A8C09D2AFF4
:010485002254
:0E04ED00C2AFE4F50CF50BF50AF509D2AF220B
:10032900AF0CAE0BAD0AAC09EC4D4E4F6060E4FF6B
:10033900FEFDFCAB0CAA0BA90AA809D31201334094
:100349001F050853080774FF250CF50CE50B34FF4E
:10035900F50BE50A34FFF50AE50934FFF509801EB6
:100369001508530807E4FAF9F8E50C2401F50CEA35
:10037900350BF50BE9350AF50AE83509F509AF90AA
:100389005307F0E5089000039342078F90224390AA
:010399000F54
:01039A002240
:1002B00075160075151075140E751300E4FCFDAB72
:1002C00016AA15A914A813120016E47BE87A03F9FC
:1002D000F81200A18F168E158D148C13C3E4951699
:1002E000F516E49515F51574019514F514E49513B8
:1002F000F513E516240DF516E43515F515E435145A
:10030000F514E43513F513AF16AE15AD14FC7808EB
:100310001201498F0D85160E5389F0438901850D11
:080320008C850E8AD2A9D28C53
:0103280022B2
:03000B000203DF0E
:1003DF00C0E0C0F0C083C082C0D075D000C000C0E4
:1003EF0001C002C003C004C005C006C007850D8C44
:1003FF00850E8A120329D007D006D005D004D0036A
:10040F00D002D001D000D0D0D082D083D0F0D0E0B5
:01041F0032AA
:0204D900C10060
:1004DC00D2B353890F438910C28EC2ABD28AD2AA2F
:0104EC0022ED
:10048600E4F58DF58BD28E30B307E58DC3944040ED
:10049600F6C28EAF8DEFFEAD8B7C00E42DFFEC3EF9
:0204A600FE2234
:1004A800E4F58DF58BD28E20B307E58DC3944040DB
:1004B800F6C28EAF8DEFFEAD8B7C00E42DFFEC3ED7
:0204C800FE2212
:0300130002015C8B
:10015C00C0E0C0D075D000C000C001C002C003C058
:07016C0004C005C006C00736
:100173001204A8C3EF9499EE941E4009D3EF94336D
:10018300EE94224005C28B02020F120486C3EF9441
:1001930066EE940E4009D3EF9400EE94124004C22D
:1001A3008B8069E4FBE4FA1204A8C3EF9439EE945C
:1001B300014009D3EF94CEEE94024004C28B804CED
:1001C300120486D3EF9439EE9401400EEF94CEEEF1
:1001D30094025006E9C313F9801ED3EF9441EE94C1
:1001E300054011EF94D7EE94065009E9C313F94380
:1001F30001808004C28B80140ABA08AB740F2BF8F9
:0C020300A6010BEB6404709DD200C28BBE
:10020F00D007D006D005D004D003D002D001D00043
:05021F00D0D0D0E03258
:10023000020420E493A3F8E493A34003F68001F2C0
:1002400008DFF48029E493A3F85407240CC8C333CF
:10025000C4540F4420C8834004F456800146F6DF9E
:10026000E4800B01020408102040809004CAE47E60
:10027000019360BCA3FF543F30E509541FFEE49393
:10028000A360010ECF54C025E060A840B8E493A35A
:10029000FAE493A3F8E493A3C8C582C8CAC583CA85
:1002A000F0A3C8C582C8CAC583CADFE9DEE780BE3D
:0104DB000020
:10001600E88FF0A4CC8BF0A42CFCE98EF0A42CFC89
:100026008AF0EDA42CFCEA8EF0A4CDA8F08BF0A407
:100036002DCC3825F0FDE98FF0A42CCD35F0FCEB66
:100046008EF0A4FEA9F0EB8FF0A4CFC5F02ECD392B
:0F005600FEE43CFCEAA42DCE35F0FDE43CFC2298
:1000650075F008758200EF2FFFEE33FECD33CDCC52
:1000750033CCC58233C5829BED9AEC99E5829840D5
:100085000CF582EE9BFEED9AFDEC99FC0FD5F0D6B2
:10009500E4CEFBE4CDFAE4CCF9A88222B800C1B9DC
:1000A5000059BA002DEC8BF084CFCECDFCE5F0CB1A
:1000B500F97818EF2FFFEE33FEED33FDEC33FCEB53
:1000C50033FB10D703994004EB99FB0FD8E5E4F90E
:1000D500FA227818EF2FFFEE33FEED33FDEC33FCFB
:1000E500C933C910D7059BE99A4007EC9BFCE99AEF
:1000F500F90FD8E0E4C9FAE4CCFB2275F010EF2F34
:10010500FFEE33FEED33FDCC33CCC833C810D70733
:100115009BEC9AE899400AED9BFDEC9AFCE899F86E
:0E0125000FD5F0DAE4CDFBE4CCFAE4C8F92201
:10039B00C2D5E830E70FB2D5E4C39BFBE49AFAE48D
:1003AB0099F9E498F8EC30E717B2D51203D11200A3
:1003BB00A1E4C39BFBE49AFAE499F9E498F880036F
:1003CB001200A130D50DE4C39FFFE49EFEE49DFD1A
:0403DB00E49CFC2280
:10013300EB9FF5F0EA9E42F0E99D42F0EC6480C843
:0601430064809845F022E3
:10014900E8600FECC313FCED13FDEE13FEEF13FF94
:03015900D8F122B8
:00000001FF
