:0300000002048C6B
:0C048C00787FE4F6D8FD75814F0204D3A0
:10075B00C0F9A4B0999282F880908883C6A1868E46
:10076B00313233263435362537383928301B0D27AF
:1003AC000735FFFFFFFFFFFFFF10400101010101B7
:1003BC000101010101010101010101A040500000F6
:1003CC000000000000000000000000000000000021
:1003DC000000000000000000000000000000000011
:1003EC000000000000000000000000000000000001
:1003FC000000000000000000000000000000C10030
:10040C00C102C101013C00013D00023E0000900010
:10041C0001010101010101010101010101010101C0
:10042C00A04010000003E8000003E8000003E8000F
:10043C000003E8000003E8000003E8000003E80004
:10044C000003E8000003E8000003E8000003E800F4
:10045C000003E8000003E8000003E8000003E800E4
:10046C000003E80121001022FFFFFFFFFFFFFFFF49
:0F047C00FFFFFFFFFFFFFFFF0132000233000011
:1006EE00D2AFC294D2937F017E001206107F007E9D
:1006FE00007D007C001205961202A43001FA300231
:10070E00F7C202D3E53F9400E53E940040EAE53F90
:10071E00153F7002153EAE3EAF3FE4FCFD1205964E
:0C072E00E53F453E70D2D200F53B80CC88
:10061000750B00750A1075090E750800E4FCFDAB3A
:100620000BAA0AA909A80812000EE47BE87A03F9CC
:10063000F81200998F0B8E0A8D098C08C3E4950B74
:10064000F50BE4950AF50A74019509F509E4950896
:10065000F508E50B241CF50BE4350AF50AE4350929
:10066000F509E43508F508AF0BAE0AAD09FC7808CA
:1006700012013C8F3C850B3D5389F0438901853C39
:080680008C853D8AD2A9D28CC1
:01068800224F
:080596008F0E8E0D8D0C8C0BF5
:10059E00E4F50FE47B0AFAF9F8AF0EAE0DAD0CAC34
:1005AE000B120099AF037410250FF8A607AF0EAE0D
:1005BE000DAD0CAC0BE47B0AFAF9F81200998F0E14
:1005CE008E0D8D0C8C0B050FE50FB406C6750F0541
:1005DE007410250FF8E6700A7435250FF876FFD5DE
:1005EE000FEEC3E50F6480948040167410250FF84B
:1005FE00E690075B93FF7435250FF8A607150F805D
:01060E00E10A
:01060F0022C8
:10051800E50825E025E0246BF582E43407F583E55A
:0D052800822509F582E43583F583E493FF15
:100535008F0AE50AB42618C3E53F940FE53E9427D4
:10054500504E053FE53F7002053EAE3EFF801CE57F
:100555000AB4281AD3E53F9401E53E94004031E5FD
:100565003F153F7002153EAE3EAF3FE4801DE50AE4
:10057500B40D03D20122E50AB41B15C200753BFF79
:10058500C201E4F53EF53FAE3EAF3FFCFD120596D8
:010595002243
:1002A400E4F508E4F509E50825E025E024402509FE
:1002B400F8E6FFE50825E025E024002509F8E2FE3C
:1002C4006F6020EE6003120518E50825E025E024A0
:1002D400402509F8E6FFE50825E025E02400250986
:1002E400F8EFF2E508C454F02450F8E50925E025B8
:1002F400E028F8E2FC08E2FD08E2FE08E2FFE4FB85
:10030400FAF9F8C312012B506FE508C454F0241015
:10031400F8E50925E025E028F8E2FC08E2FD08E21A
:10032400FE08E2FFE508C454F02450F8E50925E08E
:1003340025E028F8E2FB08E2F908E2FA08E2CBF843
:10034400C312012B4049120518E508C454F02410C7
:10035400F8E50925E025E028F8C000E2FC08E2FD04
:1003640008E2FE08E224C8FFE43EFEE43DFDE43C6E
:10037400FCD00012014F8017E508C454F02410F893
:10038400E50925E025E028F812015B000003E805F3
:1003940009E509C3940450030202AA0508E508C349
:0703A400940450030202A7BC
:0103AB00222F
:10017400E52125E025E02422F8E625E0FFA2A4E419
:10018400334FFFE52125E025E02422F8A607E521E9
:1001940025E025E02423F8E625E0FFA2A5E4334F7B
:1001A400FFE52125E025E02423F8A607E52125E045
:1001B40025E02424F8E625E0FFA2A6E4334FFFE57A
:1001C4002125E025E02424F8A607E52125E025E003
:1001D4002425F8E625E0FFA2A7E4334FFFE5212517
:1001E400E025E02425F8A607E4F516E52125E02519
:1001F400E024222516F8E6540F703CE52125E0257D
:10020400E024402516F8E4F6E521C454F02450F81F
:10021400E51625E025E028F8C000E2FC08E2FD0828
:10022400E2FE08E22404FFE43EFEE43DFDE43CFC7F
:10023400D00012014F8036E52125E025E024222557
:1002440016F8E6540FFFBF0F24E52125E025E0242E
:10025400402516F87601E521C454F02450F8E5163B
:1002640025E025E028F812015B000000000516E5F2
:1002740016640460030201EF0521532103E52114F0
:10028400600F14601114601324037013D2A0C2A36E
:0F02940022D2A3C2A222D2A2C2A122D2A1C2A070
:0102A3002238
:10073A007580FFE59054F84532F59074352532F806
:10074A00E6F580E532C394065003053222E4F53219
:01075A00227C
:03000B0002068961
:10068900C0E0C0F0C083C082C0D075D000C000C037
:0706990004C005C006C00704
:1006A000853C8C853D8A300004B2968002D2961239
:1006B000073A12017430011B0534E534700205332A
:1006C000C394E8E53394034010753300753400D2C9
:0906D00002800675330075340048
:1006D900D007D006D005D004D000D0D0D082D083A6
:0506E900D0F0D0E0326A
:100498000206EEE493A3F8E493A34003F68001F286
:1004A80008DFF48029E493A3F85407240CC8C33365
:1004B800C4540F4420C8834004F456800146F6DF34
:1004C800E4800B01020408102040809003ACE47E15
:1004D800019360BCA3FF543F30E509541FFEE49329
:1004E800A360010ECF54C025E060A840B8E493A3F0
:1004F800FAE493A3F8E493A3C8C582C8CAC583CA1B
:10050800F0A3C8C582C8CAC583CADFE9DEE780BED2
:01048B000070
:10000E00E88FF0A4CC8BF0A42CFCE98EF0A42CFC91
:10001E008AF0EDA42CFCEA8EF0A4CDA8F08BF0A40F
:10002E002DCC3825F0FDE98FF0A42CCD35F0FCEB6E
:10003E008EF0A4FEA9F0EB8FF0A4CFC5F02ECD3933
:0F004E00FEE43CFCEAA42DCE35F0FDE43CFC22A0
:10005D0075F008758200EF2FFFEE33FECD33CDCC5A
:10006D0033CCC58233C5829BED9AEC99E5829840DD
:10007D000CF582EE9BFEED9AFDEC99FC0FD5F0D6BA
:10008D00E4CEFBE4CDFAE4CCF9A88222B800C1B9E4
:10009D000059BA002DEC8BF084CFCECDFCE5F0CB22
:1000AD00F97818EF2FFFEE33FEED33FDEC33FCEB5B
:1000BD0033FB10D703994004EB99FB0FD8E5E4F916
:1000CD00FA227818EF2FFFEE33FEED33FDEC33FC03
:1000DD00C933C910D7059BE99A4007EC9BFCE99AF7
:1000ED00F90FD8E0E4C9FAE4CCFB2275F010EF2F3C
:1000FD00FFEE33FEED33FDCC33CCC833C810D7073C
:10010D009BEC9AE899400AED9BFDEC9AFCE899F876
:0E011D000FD5F0DAE4CDFBE4CCFAE4C8F92209
:10012B00EB9FF5F0EA9E42F0E99D42F0E89C45F02A
:01013B0022A1
:10013C00E8600FECC313FCED13FDEE13FEEF13FFA1
:03014C00D8F122C5
:0C014F00ECF208EDF208EEF208EFF222EC
:10015B00D083D082E493F208740193F20874029373
:09016B00F208740393F2740473AA
:00000001FF
